:100000000C942A000C943C000C943C000C943C0092
:100010000C943C000C943C000C943C000C943C0070
:100020000C943C000C943C000C943C000C943C0060
:100030000C943C000C943C000C943C000C943C0050
:100040000C943C000C943C000C943C000C943C0040
:100050000C943C0011241FBECFE5D4E0DEBFCDBF21
:1000600010E0A0E6B0E001C01D92AD36B107E1F7A7
:100070000E94F1040C943C070C9400008FEF8BBBA2
:100080001ABA88BB17BA15BA84BB82BB11BA0895D5
:100090008C9A8D9A1EBC1DBC1CBC1BBC1ABC19BC06
:1000A00018BC81E087BD8FE886BD82EA8FBD89E1FB
:1000B0008EBD08951ABA16B880E687B987E886B962
:1000C00080E888B9089515B88770806687B9369A30
:1000D0003699FECF85B10895AC0130E060E971E05A
:1000E0000CC0FB013197F1F70197D9F72F5F24304E
:1000F00019F084EC99E0F5CF3F5F832F90E08417EF
:10010000950714F420E0F5CF0895AF92BF92CF92F7
:10011000DF92EF92FF920F931F93AA2797FDA0956E
:10012000BA2FBC01CD010E94E9055B016C0120E002
:1001300030E04AE755E40E949D067B018C0120E0F7
:1001400030E040E85FE30E944F0588231CF461E043
:1001500070E024C0C801B70120E03FEF4FE757E44B
:100160000E9499061816B4F4C601B50120E030E0EB
:1001700040E251E40E949D060E94BB0580E991E0A7
:1001800005C0FC013197F1F76150704061157105B0
:10019000C1F707C0C801B7010E94BB05CB01019799
:1001A000F1F71F910F91FF90EF90DF90CF90BF90EC
:1001B000AF900895AF92BF92CF92DF92EF92FF92ED
:1001C0000F931F93AA2797FDA095BA2FBC01CD01CD
:1001D0000E94E9055B016C012BEA3AEA4AEA50E425
:1001E0000E949D067B018C0120E030E040E85FE347
:1001F0000E944F05882314F461E054C0C801B70180
:1002000020E030E04FE753E40E94990618160CF006
:1002100045C0C601B50120E030E04AE754E40E9441
:1002200053055B016C0120E030E04AE755E40E9491
:100230009D067B018C0120E030E040E85FE30E94F6
:100240004F0588231CF461E070E024C0C801B701A9
:1002500020E03FEF4FE757E40E9499061816B4F4E8
:10026000C601B50120E030E040E251E40E949D0665
:100270000E94BB0580E991E005C0FC013197F1F7D0
:100280006150704061157105C1F70EC0C801B7011A
:100290000E94BB05CB010197F1F706C0C801B70169
:1002A0000E94BB056A95F1F71F910F91FF90EF90A7
:1002B000DF90CF90BF90AF9008950F931F93CF938F
:1002C000DF9310926000C0E0D0E001E010E08C2FDE
:1002D0000E946300873360F498010C2E02C0220F45
:1002E000331F0A94E2F780916000822B80936000B4
:1002F0002196C430D10559F7DF91CF911F910F910D
:10030000089580E00E9463008093610081E00E9474
:1003100063008093620082E00E9463008093630028
:1003200083E00E94630080936400089580E00E944F
:1003300063008093690081E00E94630080936A00FB
:1003400082E00E94630080936B0083E00E94630060
:1003500080936C0008951F93CF93DF93C0E0D0E0AB
:100360001FEF15BB84E690E00E94850015BA84E675
:1003700090E00E9485002196C530D10591F7DF916C
:10038000CF911F9108959BBD8ABD089599BD88BDE9
:10039000089587B3807F87BBC69AC59882E08A9507
:1003A000F1F722E035E0C79A822F8A95F1F786B3FC
:1003B0008295807F922F9A95F1F7C798932F9A95FF
:1003C000F1F7C79A922F9A95F1F796B3922F9A95D3
:1003D000F1F7C798932F9A95F1F787FDE4CFC69868
:1003E00087B38F6087BB0895282F662311F4C598C3
:1003F00001C0C59A82E08A95F1F7C79A88B3922F17
:1004000092959F70807F982B98BB95E0892F8A9555
:10041000F1F7C798892F8A95F1F7C79A88B32F709B
:10042000807F822B88BB892F8A95F1F7C7989A9590
:10043000F1F70E94C90108951F93182F8CE291E0F3
:1004400020E931E0F9013197F1F70197D9F787B346
:100450008F6087BBBF9ABD9ABE9A88B3807F88BBE6
:10046000C798C698C59881E08A95F1F7C79AC19A4E
:1004700085E0982F9A95F1F7C7988A95F1F70E9431
:10048000C901812F8C6060E00E94F40188E260E085
:100490000E94F4011F910895CF93DF93EC0104C0F3
:1004A00061E00E94F401219688818823C9F7DF91D9
:1004B000CF910895EF92FF920F931F93DF93CF9305
:1004C00000D000D00F92CDB7DEB79C018B01FE01AA
:1004D000319685E0DF011D928A95E9F7FE01359698
:1004E0000DC0C9016AE070E00E9400078083C90165
:1004F0006AE070E00E9400079B01319721153105E9
:1005000081F7BFEF0F3F1B0779F420E030E0AE0129
:100510004F5F5F4F02C02F5F3F4FFA01E20FF31FA3
:1005200080818823C1F304C025E030E0201B310B1B
:100530007E010894E11CF11CE20EF31E890109C042
:10054000F70181917F01805D61E00E94F4010F5FFE
:100550001F4F05301105A4F30F900F900F900F90CF
:100560000F90CF91DF911F910F91FF90EF90089521
:10057000883230F461118064806860E00E94F40188
:1005800008950F931F938A010E94B802C8010E9428
:100590004C021F910F910895EF92FF920F931F93BA
:1005A0008A0179010E94B802C801B7010E945A026B
:1005B0001F910F91FF90EF9008951AB81BB887E034
:1005C00080BD87E689B910BC88E98AB908955D9B2A
:1005D000FECF8CB90895FC0104C05D9BFECF8CB9A1
:1005E000319680818823C9F708955D9BFECF8AE00C
:1005F0008CB95D9BFECF8DE08CB908955F9BFECFDB
:100600008CB108958FEF84BB0895AC9AAD98AE98E5
:10061000AF980895AC98AD9AAE98AF980895AC98FD
:10062000AD98AE9AAF980895AC98AD98AE9AAF9841
:100630000895AC9AAD98AE98AF980895AC98AD98DF
:10064000AE98AF9A0895AC9AAD98AE9AAF980895C7
:10065000AC98AD9AAE98AF9A0895AC98AD9AAE9A10
:10066000AF980895AC9AAD98AE98AF9A0895AC98AB
:10067000AD98AE98AF980895AC9AAD9AAE9AAF9AED
:10068000089582B38F6082BB81B3807F81BB089560
:1006900020B330E02095309521703070C901089565
:1006A00020B330E036952795209530952170307035
:1006B000C901089520B330E03695279536952795E2
:1006C0002095309521703070C901089520B330E035
:1006D00043E0369527954A95E1F7209530952170AE
:1006E0003070C90108952F923F924F925F926F929E
:1006F0007F928F929F92AF92BF92CF92DF92EF92B2
:10070000FF920F931F93DF93CF93CDB7DEB7C05AFD
:10071000D0400FB6F894DEBF0FBECDBFEE24FF244D
:1007200000E010E02E010894411C511CE9E26E2EFD
:10073000712C6C0E7D1E71E5872E912C8C0E9D1EEA
:1007400069E7A62EB12CAC0EBD1E50E9C52E51E0B6
:10075000D52E87E090E060E070E0A70122E030E075
:100760000E94CC0280E00E946300F201E00FF11FC2
:100770008083118281E00E946300F301E00FF11F8A
:100780008083118282E00E946300F401E00FF11F78
:100790008083118283E00E946300F501E00FF11F66
:1007A0008083118288EE93E0F6013197F1F701978B
:1007B000D9F70E5F1F4F81E3E816F10421F008948A
:1007C000E11CF11CC6CF49805A80FE01339612010C
:1007D0009E01275D3F4F80819181841595050CF422
:1007E0002C01281639060CF41C013296E217F30787
:1007F00091F709A51AA5FE01BB9678019E012F5A13
:100800003F4F80819181801791070CF48C01E8168D
:10081000F9060CF47C013296E217F30791F7CE014A
:100820008F5A9F4FFC01A190B1903501889620818D
:1008300031812A153B050CF45901621673060CF43C
:1008400039013296E817F90791F7CE0187589F4F83
:10085000FC01C190D19046018896208131812C15F0
:100860003D050CF46901821693060CF44901329699
:10087000E817F90791F781E060E00E94F40180E059
:1008800090E060E070E0A20123E030E00E94CC0242
:1008900084E090E060E070E0A80123E030E00E9496
:1008A000CC0288E090E060E070E0A50123E030E059
:1008B0000E94CC028CE090E060E070E0A60123E0B2
:1008C00030E00E94CC0280E090E061E070E0A101A5
:1008D00023E030E00E94CC0284E090E061E070E030
:1008E000A70123E030E00E94CC0288E090E061E0C4
:1008F00070E0A30123E030E00E94CC028CE090E0A5
:1009000061E070E0A40123E030E00E94CC0285E0C9
:1009100090E00E946C0081E060E00E94F401040D10
:10092000151D0A0D1B1DC8018C0D9D1D64E070E096
:100930000E940007AB0180E090E060E070E023E0FF
:1009400030E00E94CC02E20CF31CE60CF71CC7015D
:10095000880D991D64E070E00E940007AB018DE0F6
:1009600090E060E070E023E030E00E94CC0284E69A
:1009700090E00E946C00C056DF4F0FB6F894DEBFC7
:100980000FBECDBFCF91DF911F910F91FF90EF90E0
:10099000DF90CF90BF90AF909F908F907F906F909F
:1009A0005F904F903F902F9008950E943E001ABA9A
:1009B00016B880E687B987E886B980E888B98FEFEE
:1009C00084BB82E00E941C0281E060E00E94F4018E
:1009D00082B38F6082BB81B3807F81BB0E9448005D
:1009E00008950E94D5048199FECF0E947303FBCF26
:1009F00080E090E00E9427078093650081E090E00E
:100A00000E9427078093660082E090E00E942707FB
:100A10008093670083E090E00E942707809368003E
:100A20000895CF93DF93209169008091610090E059
:100A3000820F911D959587958093650020916A009E
:100A40008091620090E0820F911D9595879580932B
:100A5000660020916B008091630090E0820F911DF1
:100A6000959587958093670020916C008091640034
:100A700090E0820F911D9595879580936800C0E066
:100A8000D0E0FE01EB59FF4FCE0160810E942F079D
:100A90002196C430D105A9F7DF91CF910895D4D024
:100AA00008F481E008950CD00AC102D140F0F9D0D9
:100AB00030F021F45F3F19F0EBC0511134C1EEC0AA
:100AC0000FD198F39923C9F35523B1F3951B550B17
:100AD000BB27AA2762177307840738F09F5F5F4F11
:100AE000220F331F441FAA1FA9F333D00E2E3AF052
:100AF000E0E830D091505040E695001CCAF729D06C
:100B0000FE2F27D0660F771F881FBB1F26173707BA
:100B10004807AB07B0E809F0BB0B802DBF01FF27EA
:100B200093585F4F2AF09E3F510568F0B1C0FBC05B
:100B30005F3FECF3983EDCF3869577956795B79524
:100B4000F7959F5FC9F7880F911D9695879597F93F
:100B50000895E1E0660F771F881FBB1F62177307B8
:100B60008407BA0720F0621B730B840BBA0BEE1FCD
:100B700088F7E0950895BCD088F09F5790F0B92F82
:100B80009927B751A0F0D1F0660F771F881F991FE2
:100B90001AF0BA95C9F712C0B13081F0C3D0B1E0F4
:100BA0000895C0C0672F782F8827B85F39F0B93F04
:100BB000CCF3869577956795B395D9F73EF49095E4
:100BC0008095709561957F4F8F4F9F4F0895E89462
:100BD00009C097FB3EF490958095709561957F4F85
:100BE0008F4F9F4F9923A9F0F92F96E9BB27939533
:100BF000F695879577956795B795F111F8CFFAF443
:100C0000BB0F11F460FF1BC06F5F7F4F8F4F9F4F73
:100C100016C0882311F096E911C0772321F09EE8D1
:100C2000872F762F05C0662371F096E8862F70E037
:100C300060E02AF09A95660F771F881FDAF7880F11
:100C40009695879597F90895990F0008550FAA0B67
:100C5000E0E8FEEF16161706E807F907C0F01216CF
:100C60001306E407F50798F0621B730B840B950BD2
:100C700039F40A2661F0232B242B252B21F4089527
:100C80000A2609F4A140A6958FEF811D811D0895C4
:100C900097F99F6780E870E060E008959FEF80EC2F
:100CA000089500240A9416161706180609060895D2
:100CB00000240A9412161306140605060895092E38
:100CC0000394000C11F4882352F0BB0F40F4BF2BA7
:100CD00011F460FF04C06F5F7F4F8F4F9F4F0895E7
:100CE00057FD9058440F551F59F05F3F71F04795DD
:100CF000880F97FB991F61F09F3F79F087950895C2
:100D0000121613061406551FF2CF4695F1DF08C0E0
:100D1000161617061806991FF1CF869571056105FD
:100D200008940895E894BB2766277727CB0197F9A5
:100D300008958ADF08F48FEF08950BD0C0CFB1DF9C
:100D400028F0B6DF18F0952309F0A2CFA7CF112421
:100D5000EACFC6DFA0F3959FD1F3950F50E0551F62
:100D6000629FF001729FBB27F00DB11D639FAA2700
:100D7000F00DB11DAA1F649F6627B00DA11D661F4F
:100D8000829F2227B00DA11D621F739FB00DA11D70
:100D9000621F839FA00D611D221F749F3327A00D2A
:100DA000611D231F849F600D211D822F762F6A2FC6
:100DB00011249F5750408AF0E1F088234AF0EE0F4B
:100DC000FF1FBB1F661F771F881F91505040A9F758
:100DD0009E3F510570F05CCFA6CF5F3FECF3983E8D
:100DE000DCF3869577956795B795F795E7959F5FBF
:100DF000C1F7FE2B880F911D9695879597F9089559
:100E000097FB092E07260AD077FD04D00CD006D018
:100E100000201AF4709561957F4F0895F6F790952C
:100E200081959F4F0895AA1BBB1B51E107C0AA1FC4
:100E3000BB1FA617B70710F0A61BB70B881F991F7B
:100E40005A95A9F780959095BC01CD010895E19937
:100E5000FECF9FBB8EBBE09A99278DB30895262FB6
:100E6000E199FECF9FBB8EBB2DBB0FB6F894E29AE3
:0C0E7000E19A0FBE01960895F894FFCFA0
:00000001FF
