:100000000C942A000C9447000C9447000C94470071
:100010000C9447000C9447000C9447000C94470044
:100020000C9447000C9447000C9447000C94470034
:100030000C9447000C9447000C9447000C94470024
:100040000C9447000C9447000C9447000C94470014
:100050000C94470011241FBECFE5D4E0DEBFCDBF16
:1000600010E0A0E6B0E0ECE8F7E102C005900D92E8
:10007000A43BB107D9F710E0A4EBB0E001C01D929A
:10008000A03FB107E1F70E9492080C94C40B0C94B6
:1000900000008FEF8BBB1ABA88BB17BA15BA84BBA6
:1000A00082BB11BA08958C9A8D9A1EBC1DBC1CBCD3
:1000B0001BBC1ABC19BC18BC81E087BD8FE886BD8B
:1000C00082EA8FBD89E18EBD08951ABA16B880E61E
:1000D00087B987E886B980E888B9089515B8877028
:1000E000806687B9369A3699FECF85B10895AC01FE
:1000F00030E060E971E00CC0FB013197F1F7019746
:10010000D9F72F5F243019F084EC99E0F5CF3F5FE9
:10011000832F90E08417950714F420E0F5CF08951D
:10012000AF92BF92CF92DF92EF92FF920F931F9305
:10013000AA2797FDA095BA2FBC01CD010E94710A94
:100140005B016C0120E030E04AE755E40E94250B9A
:100150007B018C0120E030E040E85FE30E94D2099F
:1001600088231CF461E070E024C0C801B70120E0DE
:100170003FEF4FE757E40E94210B1816B4F4C60175
:10018000B50120E030E040E251E40E94250B0E94DE
:10019000430A80E991E005C0FC013197F1F7615015
:1001A000704061157105C1F707C0C801B7010E9411
:1001B000430ACB010197F1F71F910F91FF90EF9048
:1001C000DF90CF90BF90AF900895AF92BF92CF9243
:1001D000DF92EF92FF920F931F93AA2797FDA095AE
:1001E000BA2FBC01CD010E94710A5B016C012BEAA0
:1001F0003AEA4AEA50E40E94250B7B018C0120E098
:1002000030E040E85FE30E94D209882314F461E003
:1002100054C0C801B70120E030E04FE753E40E942A
:10022000210B18160CF045C0C601B50120E030E0E6
:100230004AE754E40E94D6095B016C0120E030E0FB
:100240004AE755E40E94250B7B018C0120E030E059
:1002500040E85FE30E94D20988231CF461E070E06B
:1002600024C0C801B70120E03FEF4FE757E40E94E8
:10027000210B1816B4F4C601B50120E030E040E2CD
:1002800051E40E94250B0E94430A80E991E005C0D9
:10029000FC013197F1F76150704061157105C1F7AC
:1002A0000EC0C801B7010E94430ACB010197F1F7C4
:1002B00006C0C801B7010E94430A6A95F1F71F9171
:1002C0000F91FF90EF90DF90CF90BF90AF90089587
:1002D0000F931F93CF93DF931092B400C0E0D0E050
:1002E00001E010E08C2F0E946E00823360F49801D0
:1002F0000C2E02C0220F331F0A94E2F78091B40043
:10030000822B8093B4002196C430D10559F7DF9138
:10031000CF911F910F91089597E080E0973021F4DD
:10032000CF9910C081600EC0963021F4CE990AC0DA
:10033000826008C0953021F4CD9904C0846002C069
:10034000CC9B88609150933049F78093B500089515
:1003500080E00E946E008093E40081E00E946E00C5
:100360008093E50082E00E946E008093E60083E0C7
:100370000E946E008093E700089580E00E946E0066
:100380008093EC0081E00E946E008093ED0082E09B
:100390000E946E008093EE0083E00E946E008093C6
:1003A000EF0008951F93CF93DF93C0E0D0E01FEFDD
:1003B00015BB84E690E00E94900015BA84E690E0B8
:1003C0000E9490002196C530D10591F7DF91CF9121
:1003D0001F9108959BBD8ABD089599BD88BD08955C
:1003E00087B3807F87BBC69AC59882E08A95F1F76C
:1003F00022E035E0C79A822F8A95F1F786B382957D
:10040000807F922F9A95F1F7C798932F9A95F1F7DD
:10041000C79A922F9A95F1F796B3922F9A95F1F782
:10042000C798932F9A95F1F787FDE4CFC69887B3C5
:100430008F6087BB0895282F662311F4C59801C0EB
:10044000C59A82E08A95F1F7C79A88B3922F929560
:100450009F70807F982B98BB95E0892F8A95F1F744
:10046000C798892F8A95F1F7C79A88B32F70807F34
:10047000822B88BB892F8A95F1F7C7989A95F1F757
:100480000E94F00108951F93182F8CE291E020E95B
:1004900031E0F9013197F1F70197D9F787B38F6010
:1004A00087BBBF9ABD9ABE9A88B3807F88BBC79826
:1004B000C698C59881E08A95F1F7C79AC19A85E0F8
:1004C000982F9A95F1F7C7988A95F1F70E94F00155
:1004D000812F8C6060E00E941B0288E260E00E9435
:1004E0001B021F910895CF93DF93EC0104C061E0DC
:1004F0000E941B02219688818823C9F7DF91CF9142
:100500000895EF92FF920F931F93DF93CF9300D044
:1005100000D00F92CDB7DEB79C018B01FE01319662
:1005200085E0DF011D928A95E9F7FE0135960DC041
:10053000C9016AE070E00E94880B8083C9016AE00B
:1005400070E00E94880B9B0131972115310581F7DE
:10055000BFEF0F3F1B0779F420E030E0AE014F5FA3
:100560005F4F02C02F5F3F4FFA01E20FF31F808100
:100570008823C1F304C025E030E0201B310B7E014D
:100580000894E11CF11CE20EF31E890109C0F70179
:1005900081917F01805D61E00E941B020F5F1F4F10
:1005A00005301105A4F30F900F900F900F900F904E
:1005B000CF91DF911F910F91FF90EF9008958832B6
:1005C00030F461118064806860E00E941B0208952D
:1005D0000F931F938A010E94DF02C8010E947302D9
:1005E0001F910F910895EF92FF920F931F938A012D
:1005F00079010E94DF02C801B7010E9481021F91A8
:100600000F91FF90EF9008951AB81BB887E080BD56
:1006100087E689B910BC88E98AB908955D9BFECF49
:100620008CB90895FC0104C05D9BFECF8CB9319656
:1006300080818823C9F708955D9BFECF8AE08CB93D
:100640005D9BFECF8DE08CB908955F9BFECF8CB192
:1006500008958FEF84BB0895AC9AAD98AE98AF988B
:100660000895AC98AD9AAE98AF980895AC98AD98AF
:10067000AE9AAF980895AC98AD98AE9AAF98089599
:10068000AC9AAD98AE98AF980895AC98AD98AE98E6
:10069000AF9A0895AC9AAD98AE9AAF980895AC9879
:1006A000AD9AAE98AF9A0895AC98AD9AAE9AAF98BD
:1006B0000895AC9AAD98AE98AF9A0895AC98AD985D
:1006C000AE98AF980895AC9AAD9AAE9AAF9A089545
:1006D00082B38F6082BB81B3807F81BB089520B3DA
:1006E00030E02095309521703070C901089520B315
:1006F00030E0369527952095309521703070C901EE
:10070000089520B330E036952795369527952095A6
:10071000309521703070C901089520B330E043E076
:10072000369527954A95E1F72095309521703070E0
:10073000C9010895CF93DF938091DC009091DD0093
:10074000019719F5C091D000D091D100C130D105E9
:1007500039F481E060E00E941B0281E090E06EC00D
:100760008091D4009091D500019781F1C091D20081
:10077000D091D300C130D10509F06AC081E060E0BA
:100780000E941B028AE090E041C08091B1009091EC
:10079000B200019771F4C091D200D091D300C13062
:1007A000D10571F18091D4009091D5000197C9F5E0
:1007B0000DC08091DE009091DF00019709F048C0E4
:1007C0008091D4009091D500019799F481E060E088
:1007D0000E941B0286E090E061E070E045E650E098
:1007E0000E94E8028EE091E09093A8008093A70019
:1007F0002FC0C091D200D091D300C130D10589F46F
:1008000081E060E00E941B0281E090E061E070E026
:1008100049E650E00E94E802D093CD00C093CC009E
:1008200017C0C091D000D091D100C130D10581F462
:1008300081E060E00E941B028AE090E061E070E0ED
:1008400040E650E00E94E802D093CB00C093CA007B
:10085000DF91CF9108951092DD001092DC0010928C
:10086000B2001092B1001092DF001092DE000895E5
:100870008091D8009091D90001969093D9008093EF
:10088000D8001092DB001092DA0081E060E00E9454
:100890001B0282E090E061E070E040E650E00E94E0
:1008A000E802AC9AAD9AAE9AAF9A80E991E09BBD0E
:1008B0008ABD99BD88BD8091D6009091D7000197DF
:1008C000C1F409C0AC9AAD98AE9AAF989BBD8ABDF1
:1008D00099BD88BD02C085EF90E0CC9BF3CF09C0E5
:1008E000AC98AD9AAE9AAF989BBD8ABD99BD88BDB4
:1008F00002C08EE091E08699F3CF05C09BBD8ABD12
:1009000099BD88BD02C084E091E0CD99F7CF05C0C4
:100910009BBD8ABD99BD88BD02C08AEF90E0CE998B
:10092000F7CFAC9AAD9AAE9AAF9A80E991E09BBDB1
:100930008ABD99BD88BD8CED95E020E931E0F901D3
:100940003197F1F70197D9F781E060E00E941B022F
:1009500088E090E061E070E04FE650E00E94E8023D
:100960001092CB001092CA001092CF001092CE00CD
:100970008EE091E09093A8008093A7001092C700AA
:100980001092C6001092C9001092C8001092D100B7
:100990001092D0001092D5001092D4001092D30083
:1009A0001092D2001092D7001092D60081E060E041
:1009B0000E941B0208958091DA009091DB0001965D
:1009C0009093DB008093DA001092D9001092D80047
:1009D00081E060E00E941B0281E090E061E070E055
:1009E00049E650E00E94E802AC9AAD9AAE9AAF9AFE
:1009F00080E991E09BBD8ABD99BD88BD8091D600FC
:100A00009091D7000197C1F409C0AC9AAD98AE9A05
:100A1000AF989BBD8ABD99BD88BD02C085EF90E0AF
:100A2000CF9BF3CF09C0AC9AAD98AE98AF9A3BBDBF
:100A30002ABD99BD88BD04C02EE031E083E191E07C
:100A40008799F1CF05C03BBD2ABD99BD88BD04C0C3
:100A500024E031E08EE091E0CE99F5CF05C03BBDBA
:100A60002ABD99BD88BD04C02FEF30E084E091E03D
:100A7000CD99F5CFAC9AAD9AAE9AAF9A80E991E054
:100A80009BBD8ABD99BD88BD8CED95E020E931E024
:100A9000F9013197F1F70197D9F788E090E061E02B
:100AA00070E04FE650E00E94E8021092CD001092F4
:100AB000CC001092CF001092CE008EE091E0909387
:100AC000A8008093A7001092C7001092C600109251
:100AD000C9001092C8001092D1001092D00010925C
:100AE000D5001092D4001092D3001092D200109230
:100AF000D7001092D60081E060E00E941B020895AA
:100B00008091B5008730E9F0883038F48330C9F03F
:100B10008530B9F0813031F51DC08A3049F08B3015
:100B200018F48830F9F404C08C3011F08E30D1F410
:100B30008091CA009091CB000197A1F40E943804E3
:100B400008958091CC009091CD00019759F40E94B6
:100B5000DB0408958091CC009091CD00019711F4B1
:100B60000E94DB040895AC9AAD9AAE9AAF9A80E9E0
:100B700091E09BBD8ABD99BD88BD81E060E00E9487
:100B80001B0285E090E060E070E044E750E00E94E6
:100B9000E80288EE93E00E947700089581E060E02B
:100BA0000E941B0285E090E060E070E049E750E0C1
:100BB0000E94E802AC98AD9AAE98AF9A80E991E0B5
:100BC0009BBD8ABD99BD88BD20E431E086E391E0FC
:100BD00008C0AC98AD9AAE9AAF983BBD2ABD99BDFE
:100BE00088BD8699F6CF05C03BBD2ABD99BD88BD9D
:100BF00004C02EE031E084E091E0CD99F5CF05C04E
:100C00003BBD2ABD99BD88BD04C024E031E08AEF18
:100C100090E0CE99F5CFAC9AAD98AE98AF9A80E9B6
:100C200091E09BBD8ABD99BD88BD81E060E00E94D6
:100C30001B0208958F929F92AF92BF92CF92DF9244
:100C4000EF92FF920F931F930E946801AC9AAD98A8
:100C5000AE9AAF988091B400863009F477C087309F
:100C600088F4823011F1833038F4882309F442C0CB
:100C7000813009F06BC03BC0833009F1843009F04A
:100C800065C010C08C30C1F08D3030F4873019F160
:100C9000883009F05BC028C08E30A1F08F3009F099
:100CA00055C037C081E090E002C08FEF9FEF909376
:100CB000B7008093B6004EC082E090E0F8CF8EEF90
:100CC0009FEFF5CF8091C8009091C900019779F00E
:100CD00084E090E0ECCF8091C6009091C70001972E
:100CE00019F08CEF9FEFE3CF86E090E0E0CF8AEF42
:100CF0009FEFDDCF869B2EC0CC9B2CC0CD9B2AC006
:100D0000CE9B28C0CF9B26C0879B24C00E94CE05C7
:100D100021C086991FC0CC991DC0CD991BC0CE990A
:100D200019C0CF9917C0879915C0AC9AAD9AAE9AE1
:100D3000AF9A80E991E09BBD8ABD99BD88BD0E94B4
:100D4000D20188EE93E00E94770004C01092B700B1
:100D50001092B6008091CE009091CF00892B11F4B3
:100D60000E942F078090B6009090B700B4018827AA
:100D700077FD8095982F0E94710A2091A9003091EB
:100D8000AA004091AB005091AC000E94250B7B0162
:100D90008C016093BA007093BB008093BC00909369
:100DA000BD008091B8009091B900B401681B790B27
:100DB000882777FD8095982F0E94710A2091AD00B9
:100DC0003091AE004091AF005091B0000E94250BD1
:100DD0009B01AC016093C2007093C3008093C40078
:100DE0009093C500C801B7010E946E097B018C0178
:100DF0006093E0007093E1008093E2009093E30041
:100E00006091A7007091A80080E090E00E946F0AB6
:100E10005B016C01A80197010E946E090E943E0AC5
:100E20007BBD6ABDC601B501A80197010E946D098D
:100E30000E943E0A79BD68BD9092B9008092B800C8
:100E40008AE090E00E94E5001F910F91FF90EF90E3
:100E5000DF90CF90BF90AF909F908F90089581E0EA
:100E600090E09093CF008093CE00869B02C087993C
:100E700038C1CD9B02C0CE9986C086993FC0879B62
:100E80003DC081E060E00E941B0285E090E060E0F0
:100E900070E042E850E00E94E80285EF90E0909315
:100EA000A8008093A70081E090E09093C700809312
:100EB000C60006C00E941A06879902C00E94B305A8
:100EC000869BF8CF81E090E09093D1008093D00092
:100ED0009093D5008093D4001092D3001092D2004A
:100EE0000E949A031092C7001092C600CC9903C0CA
:100EF00045C00E941A06CC99FCCF40C0869BF1C029
:100F00008799EFC081E060E00E941B0285E090E0DD
:100F100060E070E04DE850E00E94E80285EF90E06C
:100F20009093A8008093A70081E090E09093C9007F
:100F30008093C80006C00E941A06869902C00E94CB
:100F4000B305879BF8CF81E090E09093D300809326
:100F5000D2009093D5008093D4001092D1001092CB
:100F6000D0000E949A031092C9001092C800CF9B33
:100F700005C002C00E941A06CF99FCCF0E948C01C6
:100F80000E948005AEC086993FC087993DC081E030
:100F900060E00E941B0285E090E060E070E048E9BC
:100FA00050E00E94E80285EF90E008C0AC9AAD984E
:100FB000AE9AAF989BBD8ABD99BD88BDCC99F6CF3E
:100FC000CF99F4CF81E090E09093D1008093D0004E
:100FD0009093D3008093D2001092D5001092D40049
:100FE0009093D7008093D6000E949A038091CA0004
:100FF0009091CB000197E1F18091CC009091CD00D0
:10100000019709F06EC06BC0869935C0879B33C0CD
:1010100081E060E00E941B0285E090E060E070E00B
:1010200042E850E00E94E80225EF30E08AEF90E0CD
:101030000AC0AC9AAD98AE9AAF983BBD2ABD99BD97
:1010400088BD879BA4CF869BF4CF81E090E09093EE
:10105000D7008093D60085EF90E008C0AC9AAD9899
:10106000AE9AAF989BBD8ABD99BD88BDCC99F6CF8D
:101070000E94380436C0869B34C0879932C081E014
:1010800060E00E941B0285E090E060E070E04DE8C7
:1010900050E00E94E8022AEF30E085EF90E00AC0BD
:1010A000AC9AAD98AE9AAF983BBD2ABD99BD88BDAC
:1010B000869B6DCF879BF4CF81E090E09093D70023
:1010C0008093D60085EF90E008C0AC9AAD98AE9AB8
:1010D000AF989BBD8ABD99BD88BDCF99F6CF0E94C0
:1010E000DB041092CF001092CE0008950E944900B8
:1010F0001ABA16B880E687B987E886B980E888B951
:101100008FEF84BB82E00E94430281E060E00E9496
:101110001B0282B38F6082BB81B3807F81BB0E9440
:1011200053000895CF93DF930E947608C0E9D1E081
:10113000829979C085E090E060E070E041EA50E09B
:101140000E94E80288E893E120E931E0F901319753
:10115000F1F70197D9F70E941A0685B3807F85BB06
:1011600085B39091B400892B85BBF5CF6091A90020
:101170007091AA008091AB009091AC0020E030E02B
:1011800040E85FE30E946E096093A9007093AA0093
:101190008093AB009093AC000E943E0A9B01AC018F
:1011A00082E090E060E070E0A90122E030E00E947F
:1011B000F30280ED97E0FE013197F1F70197D9F73F
:1011C0008199B6CF6091AD007091AE008091AF0073
:1011D0009091B00020E030E040E05FE30E946E09B3
:1011E0006093AD007093AE008093AF009093B00019
:1011F00020E030E040E251E40E94250B0E943E0ACC
:101200009B01AC0187E090E060E070E0A90122E082
:1012100030E00E94F30280ED97E0FE013197F1F794
:101220000197D9F785CF809BA1CFCACF80E090E00E
:101230000E94AF0B8093E80081E090E00E94AF0B2A
:101240008093E90082E090E00E94AF0B8093EA0077
:1012500083E090E00E94AF0B8093EB000895CF9362
:10126000DF932091EC008091E40090E0820F911DCB
:10127000959587958093E8002091ED008091E50099
:1012800090E0820F911D959587958093E9002091BC
:10129000EE008091E60090E0820F911D9595879574
:1012A0008093EA002091EF008091E70090E0820FA8
:1012B000911D959587958093EB00C0E0D0E0FE01ED
:1012C000E851FF4FCE0160810E94B70B2196C430D8
:1012D000D105A9F7DF91CF9108955058BB27AA27D0
:1012E0000ED075C166D130F06BD120F031F49F3F44
:1012F00011F41EF45BC10EF4E095E7FB51C1E92F38
:1013000077D180F3BA17620773078407950718F03F
:1013100071F49EF58FC10EF4E0950B2EBA2FA02D1F
:101320000B01B90190010C01CA01A0011124FF2792
:10133000591B99F0593F50F4503E68F11A16F0408D
:10134000A22F232F342F4427585FF3CF469537958C
:101350002795A795F0405395C9F77EF41F16BA0B51
:10136000620B730B840BBAF09150A1F0FF0FBB1FFF
:10137000661F771F881FC2F70EC0BA0F621F731F48
:10138000841F48F4879577956795B795F7959E3FA5
:1013900008F0B3CF9395880F08F09927EE0F979533
:1013A00087950895D9D008F481E008950CD00FC135
:1013B00007D140F0FED030F021F45F3F19F0F0C0CB
:1013C000511139C1F3C014D198F39923C9F35523AE
:1013D000B1F3951B550BBB27AA2762177307840728
:1013E00038F09F5F5F4F220F331F441FAA1FA9F3DE
:1013F00033D00E2E3AF0E0E830D091505040E695D0
:10140000001CCAF729D0FE2F27D0660F771F881F30
:10141000BB1F261737074807AB07B0E809F0BB0B1F
:10142000802DBF01FF2793585F4F2AF09E3F510543
:1014300068F0B6C000C15F3FECF3983EDCF38695E0
:1014400077956795B795F7959F5FC9F7880F911DB9
:101450009695879597F90895E1E0660F771F881FA5
:10146000BB1F621773078407BA0720F0621B730B58
:10147000840BBA0BEE1F88F7E095089504D06894AA
:10148000B111D9C00895BCD088F09F5790F0B92F02
:101490009927B751A0F0D1F0660F771F881F991FC9
:1014A0001AF0BA95C9F712C0B13081F0C3D0B1E0DB
:1014B0000895C0C0672F782F8827B85F39F0B93FEB
:1014C000CCF3869577956795B395D9F73EF49095CB
:1014D0008095709561957F4F8F4F9F4F0895E89449
:1014E00009C097FB3EF490958095709561957F4F6C
:1014F0008F4F9F4F9923A9F0F92F96E9BB2793951A
:10150000F695879577956795B795F111F8CFFAF429
:10151000BB0F11F460FF1BC06F5F7F4F8F4F9F4F5A
:1015200016C0882311F096E911C0772321F09EE8B8
:10153000872F762F05C0662371F096E8862F70E01E
:1015400060E02AF09A95660F771F881FDAF7880FF8
:101550009695879597F90895990F0008550FAA0B4E
:10156000E0E8FEEF16161706E807F907C0F01216B6
:101570001306E407F50798F0621B730B840B950BB9
:1015800039F40A2661F0232B242B252B21F408950E
:101590000A2609F4A140A6958FEF811D811D0895AB
:1015A00097F99F6780E870E060E008959FEF80EC16
:1015B000089500240A9416161706180609060895B9
:1015C00000240A9412161306140605060895092E1F
:1015D0000394000C11F4882352F0BB0F40F4BF2B8E
:1015E00011F460FF04C06F5F7F4F8F4F9F4F0895CE
:1015F00057FD9058440F551F59F05F3F71F04795C4
:10160000880F97FB991F61F09F3F79F087950895A8
:10161000121613061406551FF2CF4695F1DF08C0C7
:10162000161617061806991FF1CF869571056105E4
:1016300008940895E894BB2766277727CB0197F98C
:1016400008958ADF08F48FEF08950BD0C0CFB1DF83
:1016500028F0B6DF18F0952309F0A2CFA7CF112408
:10166000EACFC6DFA0F3959FD1F3950F50E0551F49
:10167000629FF001729FBB27F00DB11D639FAA27E7
:10168000F00DB11DAA1F649F6627B00DA11D661F36
:10169000829F2227B00DA11D621F739FB00DA11D57
:1016A000621F839FA00D611D221F749F3327A00D11
:1016B000611D231F849F600D211D822F762F6A2FAD
:1016C00011249F5750408AF0E1F088234AF0EE0F32
:1016D000FF1FBB1F661F771F881F91505040A9F73F
:1016E0009E3F510570F05CCFA6CF5F3FECF3983E74
:1016F000DCF3869577956795B795F795E7959F5FA6
:10170000C1F7FE2B880F911D9695879597F908953F
:1017100097FB092E07260AD077FD04D00CD006D0FF
:1017200000201AF4709561957F4F0895F6F7909513
:1017300081959F4F0895AA1BBB1B51E107C0AA1FAB
:10174000BB1FA617B70710F0A61BB70B881F991F62
:101750005A95A9F780959095BC01CD010895E1991E
:10176000FECF9FBB8EBBE09A99278DB30895262F9D
:10177000E199FECF9FBB8EBB2DBB0FB6F894E29ACA
:0C178000E19A0FBE01960895F894FFCF87
:10178C004C45465400464F5200524947485400536A
:10179C00544F5000504C55530055202D2054555249
:1017AC004E00534C4F5720363120373000534C4F9E
:1017BC0057203630203731004E4F2046524F2054A0
:1017CC00005354415254000E01000050419A999913
:0417DC003F010000C9
:00000001FF
