:100000000C942A000C9447000C9447000C94470071
:100010000C9447000C9447000C9447000C94470044
:100020000C9447000C9447000C9447000C94470034
:100030000C9447000C9447000C9447000C94470024
:100040000C9447000C9447000C9447000C94470014
:100050000C94470011241FBECFE5D4E0DEBFCDBF16
:1000600010E0A0E6B0E0E8ECF0E102C005900D92EF
:10007000AA37B107D9F710E0AAE7B0E001C01D9296
:10008000A33AB107E1F70E94C4040C9462080C94EF
:1000900000008FEF8BBB1ABA88BB17BA15BA84BBA6
:1000A00082BB11BA08958C9A8D9A1EBC1DBC1CBCD3
:1000B0001BBC1ABC19BC18BC81E087BD8FE886BD8B
:1000C00082EA8FBD89E18EBD08951ABA16B880E61E
:1000D00087B987E886B980E888B9089515B8877028
:1000E000806687B9369A3699FECF85B10895AC01FE
:1000F00030E060E971E00CC0FB013197F1F7019746
:10010000D9F72F5F243019F084EC99E0F5CF3F5FE9
:10011000832F90E08417950714F420E0F5CF08951D
:10012000AF92BF92CF92DF92EF92FF920F931F9305
:10013000AA2797FDA095BA2FBC01CD010E940F07F9
:100140005B016C0120E030E04AE755E40E94C30700
:100150007B018C0120E030E040E85FE30E94700604
:1001600088231CF461E070E024C0C801B70120E0DE
:100170003FEF4FE757E40E94BF071816B4F4C601DB
:10018000B50120E030E040E251E40E94C3070E9444
:10019000E10680E991E005C0FC013197F1F761507B
:1001A000704061157105C1F707C0C801B7010E9411
:1001B000E106CB010197F1F71F910F91FF90EF90AE
:1001C000DF90CF90BF90AF900895AF92BF92CF9243
:1001D000DF92EF92FF920F931F93AA2797FDA095AE
:1001E000BA2FBC01CD010E940F075B016C012BEA05
:1001F0003AEA4AEA50E40E94C3077B018C0120E0FE
:1002000030E040E85FE30E947006882314F461E068
:1002100054C0C801B70120E030E04FE753E40E942A
:10022000BF0718160CF045C0C601B50120E030E04C
:100230004AE754E40E9474065B016C0120E030E060
:100240004AE755E40E94C3077B018C0120E030E0BF
:1002500040E85FE30E94700688231CF461E070E0D0
:1002600024C0C801B70120E03FEF4FE757E40E94E8
:10027000BF071816B4F4C601B50120E030E040E233
:1002800051E40E94C3070E94E10680E991E005C0A5
:10029000FC013197F1F76150704061157105C1F7AC
:1002A0000EC0C801B7010E94E106CB010197F1F72A
:1002B00006C0C801B7010E94E1066A95F1F71F91D7
:1002C0000F91FF90EF90DF90CF90BF90AF90089587
:1002D0000F931F93CF93DF9310927A00C0E0D0E08A
:1002E00001E010E08C2F0E946E00823360F49801D0
:1002F0000C2E02C0220F331F0A94E2F780917A007D
:10030000822B80937A002196C430D10559F7DF9172
:10031000CF911F910F91089580E00E946E0080930D
:10032000970081E00E946E008093980082E00E9416
:100330006E008093990083E00E946E0080939A0083
:10034000089580E00E946E0080939F0081E00E94EB
:100350006E008093A00082E00E946E008093A10056
:1003600083E00E946E008093A20008951F93CF93B4
:10037000DF93C0E0D0E01FEF15BB84E690E00E9461
:10038000900015BA84E690E00E9490002196C53056
:10039000D10591F7DF91CF911F9108959BBD8ABD43
:1003A000089599BD88BD089587B3807F87BBC69A9D
:1003B000C59882E08A95F1F722E035E0C79A822F4E
:1003C0008A95F1F786B38295807F922F9A95F1F7FF
:1003D000C798932F9A95F1F7C79A922F9A95F1F7AC
:1003E00096B3922F9A95F1F7C798932F9A95F1F7B4
:1003F00087FDE4CFC69887B38F6087BB0895282F09
:10040000662311F4C59801C0C59A82E08A95F1F778
:10041000C79A88B3922F92959F70807F982B98BB34
:1004200095E0892F8A95F1F7C798892F8A95F1F77A
:10043000C79A88B32F70807F822B88BB892F8A95BB
:10044000F1F7C7989A95F1F70E94D40108951F9388
:10045000182F8CE291E020E931E0F9013197F1F7B2
:100460000197D9F787B38F6087BBBF9ABD9ABE9AB1
:1004700088B3807F88BBC798C698C59881E08A9565
:10048000F1F7C79AC19A85E0982F9A95F1F7C79826
:100490008A95F1F70E94D401812F8C6060E00E9460
:1004A000FF0188E260E00E94FF011F910895CF9351
:1004B000DF93EC0104C061E00E94FF012196888176
:1004C0008823C9F7DF91CF910895EF92FF920F93A0
:1004D0001F93DF93CF9300D000D00F92CDB7DEB73C
:1004E0009C018B01FE01319685E0DF011D928A950A
:1004F000E9F7FE0135960DC0C9016AE070E00E947F
:1005000026088083C9016AE070E00E9426089B01EA
:1005100031972115310581F7BFEF0F3F1B0779F4A4
:1005200020E030E0AE014F5F5F4F02C02F5F3F4FD2
:10053000FA01E20FF31F80818823C1F304C025E094
:1005400030E0201B310B7E010894E11CF11CE20E0F
:10055000F31E890109C0F70181917F01805D61E08F
:100560000E94FF010F5F1F4F05301105A4F30F908C
:100570000F900F900F900F90CF91DF911F910F91DF
:10058000FF90EF900895883230F4611180648068A4
:1005900060E00E94FF0108950F931F938A010E945B
:1005A000C302C8010E9457021F910F910895EF9254
:1005B000FF920F931F938A0179010E94C302C80121
:1005C000B7010E9465021F910F91FF90EF9008956F
:1005D0001AB81BB887E080BD87E689B910BC88E9E6
:1005E0008AB908955D9BFECF8CB90895FC0104C0C3
:1005F0005D9BFECF8CB9319680818823C9F7089521
:100600005D9BFECF8AE08CB95D9BFECF8DE08CB9FF
:1006100008955F9BFECF8CB108958FEF84BB089542
:10062000AC9AAD98AE98AF980895AC98AD9AAE9844
:10063000AF980895AC98AD98AE9AAF980895AC98DD
:10064000AD98AE9AAF980895AC9AAD98AE98AF9821
:100650000895AC98AD98AE98AF9A0895AC9AAD98BD
:10066000AE9AAF980895AC98AD9AAE98AF9A0895A7
:10067000AC98AD9AAE9AAF980895AC9AAD98AE98F2
:10068000AF9A0895AC98AD98AE98AF980895AC9A8B
:10069000AD9AAE9AAF9A089582B38F6082BB81B350
:1006A000807F81BB089520B330E020953095217084
:1006B0003070C901089520B330E036952795209514
:1006C000309521703070C901089520B330E036951F
:1006D0002795369527952095309521703070C90162
:1006E000089520B330E043E0369527954A95E1F729
:1006F0002095309521703070C90108954F925F9216
:100700006F927F928F929F92AF92BF92CF92DF9221
:10071000EF92FF920F931F930E946801AC9AAD98DD
:10072000AE9AAF9880917A00843009F1853050F408
:100730008130B1F18130B8F18230E1F0833009F0DD
:1007400052C022C0883049F1893030F4863051F0EF
:10075000873009F048C01EC08C3099F08E3009F007
:1007600042C015C010927C0010927B003CC081E01A
:1007700090E002C08FEF9FEF90937C0080937B000E
:1007800032C083E090E0F8CF8DEF9FEFF5CF84E0AB
:1007900090E0F2CF8CEF9FEFEFCF86E090E0ECCFD0
:1007A0008AEF9FEFE9CF869B1EC0CC9B1CC0CD9BE0
:1007B0001AC0CE9B18C0CF9B16C0879B14C081E087
:1007C00060E00E94FF0181E090E060E070E040E6C0
:1007D00050E00E94CC0281E090E061E070E040E6F1
:1007E00050E00E94CC0240907B0050907C00B2010F
:1007F000882777FD8095982F0E940F077B018C0139
:1008000020917100309172004091730050917400FA
:100810000E94C3073B014C016093870070938800DE
:100820008093890090938A00C801B70120918B00C2
:1008300030918C0040918D0050918E000E940C06EA
:100840005B016C0160938B0070938C0080938D0032
:1008500090938E0080917D0090917E00B201681B84
:10086000790B882777FD8095982F0E940F0720919C
:1008700075003091760040917700509178000E9489
:10088000C3077B018C0160938F007093900080936D
:10089000910090939200C601B501209183003091A0
:1008A000840040918500509186000E94C3079B01FF
:1008B000AC01C401B3010E940C06A80197010E947B
:1008C0000C065B016C01609393007093940080931D
:1008D00095009093960060916F007091700080E099
:1008E00090E00E940D073B014C01A60195010E947A
:1008F0000C060E94DC067B018C0160937F00F09265
:100900008000C401B301A60195010E940B060E945C
:10091000DC066093810070938200FBBCEABC79BD69
:1009200068BD50927E0040927D008AE090E00E9477
:10093000E5001F910F91FF90EF90DF90CF90BF9057
:10094000AF909F908F907F906F905F904F900895A1
:100950000E9449001ABA16B880E687B987E886B9B6
:1009600080E888B98FEF84BB82E00E94270281E093
:1009700060E00E94FF0182B38F6082BB81B3807F01
:1009800081BB0E9453000895CF93DF930E94A80477
:100990006091710070917200809173009091740069
:1009A0000E94DC069B01AC0182E090E060E070E018
:1009B000A90122E030E00E94D70260917500709199
:1009C0007600809177009091780020E030E040E25E
:1009D00051E40E94C3070E94DC069B01AC0187E042
:1009E00090E060E070E0A90122E030E00E94D702D0
:1009F00060918300709184008091850090918600C1
:100A000020E030E048EC52E40E94C3070E94DC067C
:100A10009B01AC018CE090E060E070E0A90122E075
:100A200030E00E94D702C0E9D1E082999AC00E94CA
:100A30007E0385B3807F85BB85B390917A00892B37
:100A400085BBF5CF60917100709172008091730049
:100A50009091740020E030E040E85FE30E940C06D3
:100A60006093710070937200809373009093740090
:100A70000E94DC069B01AC0182E090E060E070E047
:100A8000A90122E030E00E94D7028CED95E0FE0142
:100A90003197F1F70197D9F7809930C060918300C1
:100AA0007091840080918500909186002AE037ED56
:100AB00043E25CE30E940B06609383007093840022
:100AC000809385009093860020E030E048EC52EC63
:100AD0000E94C3070E94DC069B01AC018CE090E001
:100AE00060E070E0A90122E030E00E94D7028CEDC6
:100AF00095E0FE013197F1F70197D9F7819995CFEC
:100B000060918300709184008091850090918600AF
:100B10002AE037ED43E25CE30E940C066093830019
:100B200070938400809385009093860020E030E0ED
:100B300048EC52E40E94C3070E94DC069B01AC0112
:100B40008CE090E060E070E0A90122E030E00E94DB
:100B5000D7028CED95E0FE013197F1F70197D9F7B7
:100B600064CF839B6FCF98CF80E090E00E944D08C8
:100B700080939B0081E090E00E944D0880939C0050
:100B800082E090E00E944D0880939D0083E090E019
:100B90000E944D0880939E000895CF93DF9320918B
:100BA0009F008091970090E0820F911D9595879509
:100BB00080939B002091A0008091980090E0820F8C
:100BC000911D9595879580939C002091A10080911F
:100BD000990090E0820F911D9595879580939D00D7
:100BE0002091A20080919A0090E0820F911D95952E
:100BF000879580939E00C0E0D0E0FE01E556FF4F50
:100C0000CE0160810E9455082196C430D105A9F714
:100C1000DF91CF9108955058BB27AA270ED075C1F8
:100C200066D130F06BD120F031F49F3F11F41EF407
:100C30005BC10EF4E095E7FB51C1E92F77D180F35A
:100C4000BA17620773078407950718F071F49EF5C9
:100C50008FC10EF4E0950B2EBA2FA02D0B01B90118
:100C600090010C01CA01A0011124FF27591B99F022
:100C7000593F50F4503E68F11A16F040A22F232F2E
:100C8000342F4427585FF3CF469537952795A7957E
:100C9000F0405395C9F77EF41F16BA0B620B730B25
:100CA000840BBAF09150A1F0FF0FBB1F661F771F96
:100CB000881FC2F70EC0BA0F621F731F841F48F44B
:100CC000879577956795B795F7959E3F08F0B3CFD1
:100CD0009395880F08F09927EE0F979587950895BB
:100CE000D9D008F481E008950CD00FC107D140F0AD
:100CF000FED030F021F45F3F19F0F0C0511139C13E
:100D0000F3C014D198F39923C9F35523B1F3951B7C
:100D1000550BBB27AA2762177307840738F09F5F1C
:100D20005F4F220F331F441FAA1FA9F333D00E2E8B
:100D30003AF0E0E830D091505040E695001CCAF7F8
:100D400029D0FE2F27D0660F771F881FBB1F2617BD
:100D500037074807AB07B0E809F0BB0B802DBF0190
:100D6000FF2793585F4F2AF09E3F510568F0B6C0A9
:100D700000C15F3FECF3983EDCF38695779567956D
:100D8000B795F7959F5FC9F7880F911D9695879541
:100D900097F90895E1E0660F771F881FBB1F621760
:100DA00073078407BA0720F0621B730B840BBA0B1E
:100DB000EE1F88F7E095089504D06894B111D9C06A
:100DC0000895BCD088F09F5790F0B92F9927B7515C
:100DD000A0F0D1F0660F771F881F991F1AF0BA95FF
:100DE000C9F712C0B13081F0C3D0B1E00895C0C0DE
:100DF000672F782F8827B85F39F0B93FCCF38695F5
:100E000077956795B395D9F73EF490958095709551
:100E100061957F4F8F4F9F4F0895E89409C097FBCE
:100E20003EF490958095709561957F4F8F4F9F4FC1
:100E30009923A9F0F92F96E9BB279395F695879505
:100E400077956795B795F111F8CFFAF4BB0F11F4C8
:100E500060FF1BC06F5F7F4F8F4F9F4F16C088236F
:100E600011F096E911C0772321F09EE8872F762FA5
:100E700005C0662371F096E8862F70E060E02AF0E6
:100E80009A95660F771F881FDAF7880F96958795D2
:100E900097F90895990F0008550FAA0BE0E8FEEFA7
:100EA00016161706E807F907C0F012161306E4072E
:100EB000F50798F0621B730B840B950B39F40A2627
:100EC00061F0232B242B252B21F408950A2609F405
:100ED000A140A6958FEF811D811D089597F99F6709
:100EE00080E870E060E008959FEF80EC08950024B2
:100EF0000A941616170618060906089500240A947F
:100F000012161306140605060895092E0394000C04
:100F100011F4882352F0BB0F40F4BF2B11F460FF93
:100F200004C06F5F7F4F8F4F9F4F089557FD9058BC
:100F3000440F551F59F05F3F71F04795880F97FB9D
:100F4000991F61F09F3F79F0879508951216130657
:100F50001406551FF2CF4695F1DF08C01616170686
:100F60001806991FF1CF86957105610508940895BB
:100F7000E894BB2766277727CB0197F908958ADF86
:100F800008F48FEF08950BD0C0CFB1DF28F0B6DFA3
:100F900018F0952309F0A2CFA7CF1124EACFC6DF1E
:100FA000A0F3959FD1F3950F50E0551F629FF0017C
:100FB000729FBB27F00DB11D639FAA27F00DB11DD5
:100FC000AA1F649F6627B00DA11D661F829F22275E
:100FD000B00DA11D621F739FB00DA11D621F839FE5
:100FE000A00D611D221F749F3327A00D611D231FBB
:100FF000849F600D211D822F762F6A2F11249F5709
:1010000050408AF0E1F088234AF0EE0FFF1FBB1F2B
:10101000661F771F881F91505040A9F79E3F5105CA
:1010200070F05CCFA6CF5F3FECF3983EDCF3869583
:1010300077956795B795F795E7959F5FC1F7FE2B75
:10104000880F911D9695879597F9089597FB092E1E
:1010500007260AD077FD04D00CD006D000201AF461
:10106000709561957F4F0895F6F7909581959F4F04
:101070000895AA1BBB1B51E107C0AA1FBB1FA617DF
:10108000B70710F0A61BB70B881F991F5A95A9F731
:1010900080959095BC01CD010895E199FECF9FBB4D
:1010A0008EBBE09A99278DB30895262FE199FECF44
:1010B0009FBB8EBB2DBB0FB6F894E29AE19A0FBE90
:0810C00001960895F894FFCF9A
:1010C8005348495420534849542053484954000E22
:0A10D80001000050419A99993F0071
:00000001FF
